:100000000C9481000C94A9000C94A9000C94A900F4
:100010000C94A9000C94A9000C94A9000C94A900BC
:100020000C94A9000C94A9000C94A9000C94A900AC
:100030000C94A9000C94A9000C94A9000C94A9009C
:100040000C9481070C94A9000C9498030C947203EF
:100050000C94A9000C94A9000C94A9000C94A9007C
:100060000C94B8040C94A900EB0800090009FF08DF
:100070000009DD08000900090009DF08000900097E
:10008000F208FD08FB08000900090009F9081F1C17
:100090001F1E1F1E1F1F1E1F1E1F32303A34333AF1
:1000A0003330004F63742032362032303138000054
:1000B000000000240027002A00000000002500287E
:1000C000002B0004040404040404040202020202DB
:1000D000020303030303030102040810204080010C
:1000E000020408102001020408102000000008008B
:1000F00002010000030407000000000000000000EF
:10010000560A11241FBECFEFD8E0DEBFCDBF12E0EC
:10011000A0E0B1E0ECE1F6E102C005900D92A83359
:10012000B107D9F723E0A8E3B2E001C01D92AA3AD3
:10013000B207E1F710E0C1E8D0E004C02197FE016A
:100140000E94E70AC038D107C9F70E94D8070C946B
:100150000C0B0C94000008950895CF92DF92EF925B
:10016000FF920F931F93CF93DF936C017A018B0162
:10017000C0E0D0E0CE15DF0581F0D8016D918D0192
:10018000D601ED91FC910190F081E02DC601099519
:10019000892B11F02196EECF7E01C701DF91CF911F
:1001A0001F910F91FF90EF90DF90CF900895FC0189
:1001B000538D448D252F30E0842F90E0821B930BCC
:1001C000541710F0CF96089501970895FC01918D72
:1001D000828D981761F0828DDF01A80FB11D5D96A9
:1001E0008C91928D9F5F9F73928F90E008958FEF17
:1001F0009FEF0895FC01918D828D981731F0828DCB
:10020000E80FF11D858D90E008958FEF9FEF089521
:10021000FC01918D228D892F90E0805C9F4F821B85
:1002200091098F73992708958CEE92E00E9408013E
:1002300021E0892B09F420E0822F0895FC01848DB0
:10024000DF01A80FB11DA35ABF4F2C91848D90E000
:1002500001968F739927848FA689B7892C93A089DB
:10026000B1898C91837080648C93938D848D981365
:1002700006C00288F389E02D80818F7D80830895F8
:10028000EF92FF920F931F93CF93DF93EC0181E0E6
:10029000888F9B8D8C8D981305C0E889F9898081A2
:1002A00085FD26C0F62E0B8D10E00F5F1F4F0F73DC
:1002B0001127E02E8C8DE8120CC00FB607FCFACF88
:1002C000E889F989808185FFF5CFCE010E941E0162
:1002D000F1CF8B8DFE01E80FF11DE35AFF4FF08245
:1002E0009FB7F8940B8FEA89FB89808180620AC0EE
:1002F0009FB7F894EE89FF896083E889F989808146
:100300008370806480839FBF81E090E0DF91CF9114
:100310001F910F91FF90EF900895CF93DF93EC0121
:10032000888D8823C9F0EA89FB89808185FD05C015
:10033000A889B9898C9186FD0FC00FB607FCF5CF4F
:10034000808185FFF2CFA889B9898C9185FFEDCF97
:10035000CE010E941E01E7CFDF91CF91089580E08A
:1003600090E0892B29F00E94140181110C94000067
:100370000895803D27E0920710F0805D974050E09F
:10038000EEE8F0E021E0261730F43491430F511DE0
:100390002F5F3196F8CF633038F09C0123703327FC
:1003A000232B11F44F5F5F4FBC016D5F7F4F76953C
:1003B000679576956795EDE6F1E08E9F90018F9FAA
:1003C000300D9E9F300D1124C9010197860F971F94
:1003D000840F951F0895EF92FF920F931F93CF9371
:1003E000DF93EC0188814A81698190E00E94B90124
:1003F0009C01A8E1B0E00E94ED0A2B817B018C01F9
:10040000E20EF11C011D111DA8019701ACE3B0E043
:100410000E94FC0A2C817B018C01E20EF11C011D63
:10042000111DA80197010E94FC0A2D81DC01CB015E
:10043000820F911DA11DB11DBC01CD0160587C4BE7
:100440008249974CDF91CF911F910F91FF90EF90D0
:10045000089585ED8093BC008091BC0084FDFCCFA5
:100460001092C902089540915802262F30E0240FBF
:10047000311D21323105DCF42091C9022430C9F448
:10048000FC0180E090E0861758F4309158022191E9
:10049000DC01A85CBD4FA30FB11D2C930196F3CFD7
:1004A00080915802680F6093580280E0089581E0BF
:1004B000089582E008950895E091CB028091CA02E8
:1004C000E81730F4F0E0E453FD4F808190E00895A8
:1004D0008FEF9FEF08959091CB028091CA029817F9
:1004E00050F4E92FF0E0E453FD4F208130E09F5FAE
:1004F0009093CB0202C02FEF3FEFC9010895809186
:10050000CA0290E02091CB02821B91090895CF92FC
:10051000DF92EF92FF920F931F93CF93DF937C01B3
:10052000CB018A0120917F02222389F0EB016B012C
:10053000C40ED51ECC15DD0569F06991D701ED918A
:10054000FC910190F081E02DC7010995F3CF642F54
:100550000E943302C801DF91CF911F910F91FF904C
:10056000EF90DF90CF900895CF93DF931F92CDB798
:10057000DEB7698320917F022223D1F02091A2026D
:10058000203240F021E030E0FC013383228380E020
:1005900090E015C080918002E82FF0E0EF57FD4F0A
:1005A000998190838F5F809380028093A20205C01F
:1005B00061E0CE0101960E94330281E090E00F904D
:1005C000DF91CF910895089580E090E00895CF9253
:1005D000DF92EF92FF920F931F93CF93DF93EC0183
:1005E00081E080937F0288E68093A10210928002CE
:1005F0001092A20263E089E893E00E94B4020E9494
:100600009C0687E090E00E94530689E893E00E94F0
:100610006B028F77982F92959F701AEF082F919FFA
:10062000000D112489E893E00E946B029C0133279E
:1006300094E0359527959A95E1F7F82E129FF00CE6
:10064000112489E893E00E946B029C01332744E067
:10065000359527954A95E1F7E82E129FE00C112475
:1006600089E893E00E946B029C01332754E03595A2
:1006700027955A95E1F7D82E129FD00C112489E8BE
:1006800093E00E946B0289E893E00E946B029C0158
:10069000332764E0359527956A95E1F7C82E129FB8
:1006A000C00C112489E893E00E946B029C0133275F
:1006B00074E0359527957A95E1F7129F800D112406
:1006C0008883C982DA82EB82FC820D83CE01DF91BE
:1006D000CF911F910F91FF90EF90DF90CF900895F1
:1006E0000E94070B1F920F920FB60F9211242F93A7
:1006F0003F934F935F936F937F938F939F93AF93AA
:10070000BF93EF93FF938CEE92E00E941E01FF9146
:10071000EF91BF91AF919F918F917F916F915F9179
:100720004F913F912F910F900FBE0F901F901895F2
:100730001F920F920FB60F9211242F938F939F93B6
:10074000EF93FF93E091FC02F091FD028081E09134
:100750000203F091030382FD12C090818091050392
:100760008F5F8F7320910603821751F0E09105038C
:10077000F0E0E451FD4F958F8093050301C0808127
:10078000FF91EF919F918F912F910F900FBE0F903E
:100790001F9018958F929F92AF92BF92CF92DF9247
:1007A000EF92FF92CF93DF93EC016A017B0180E827
:1007B000C81A83E4D80A8DE6E80A88E3F80A8CE3CD
:1007C000882E912CA12CB12CC701B601A501940152
:1007D0000E94C50A6D83CA01B901A50194010E9456
:1007E000C50A6C83C701B60120E13EE040E050E05D
:1007F0000E94C50ACA01B90128E130E040E050E09A
:100800000E94C50A6B83C701B60120E831E541E0CB
:1008100050E00E94C50A18824881542F537081E02D
:1008200009F080E090E0BC0163597E4F261737073E
:1008300038F0281B390B2D5631404F5F4883ECCFE1
:1008400081E089838981E82FF0E0E357FF4FE4914D
:10085000511103C0823009F4EF5FF0E02E173F071B
:1008600020F02E1B3F0B8F5FECCF2F5F2A83DF9191
:10087000CF91FF90EF90DF90CF90BF90AF909F907F
:100880008F9008950F931F93CF93DF9300D000D0E4
:1008900000D0CDB7DEB78C01CE0101960E94E702F1
:1008A000CE0101960E94EB01AB01BC01445C5F4F9D
:1008B0006F4F7F4FC8010E94CA0388E791E00E94F2
:1008C0004506F801608170E06053784F072E000CF8
:1008D000880B990B4AE00E94F8058FE20E944006BF
:1008E000F80181810E9439068FE20E944006F801DA
:1008F00082810E94390685E991E00E94E605F801AF
:1009000080814281618190E00E94B901069667E092
:1009100070E00E94B10A4CE0489F9001499F300D61
:100920001124C90180509F4F0E94E60588E991E09B
:100930000E94E605F80183810E9439068AE30E943D
:100940004006F80184810E9439068AE30E9440062D
:10095000F80185810E943906C80126960FB6F894E1
:10096000DEBF0FBECDBFDF91CF911F910F910895D4
:100970001F920F920FB60F9211242F933F934F9314
:100980005F936F937F938F939F93AF93BF93EF93F7
:10099000FF938091B900887F803609F49CC068F588
:1009A000883209F45BC090F4803109F454C038F403
:1009B000882309F4F6C0883009F44DC0F6C08831A8
:1009C00009F44CC0803209F45DC0EFC0803409F4F2
:1009D00068C048F4803309F455C0883309F0E5C095
:1009E0008093C702D8C0803509F44FC0883509F418
:1009F0005DC0883409F0D9C0D6C0883909F4C7C0B1
:100A0000A8F4883709F467C038F4883609F463C05D
:100A1000803709F460C0C9C0883809F4B8C080398B
:100A200009F45FC0803809F0C0C05BC0803B09F4A6
:100A300086C038F4803A09F466C0883A09F47FC069
:100A4000B4C0803C09F4A7C0883C09F4A4C0883B2A
:100A500009F48AC0AAC08091C40210C09091C60255
:100A60008091C502981770F5E091C60281E08E0F63
:100A70008093C602F0E0ED55FD4F80818093BB006E
:100A800085EC86C08093C7028EC0E091C60281E0EB
:100A90008E0F8093C6028091BB00F0E0ED55FD4FB4
:100AA00080839091C6028091C5026EC0E091C6021B
:100AB00081E08E0F8093C6028091BB00F0E0ED557F
:100AC000FD4F80838091C80281116DC081E08093C9
:100AD000C30284EA61C083E08093C90210927A0263
:100AE000CFCF80917A02803208F051C0E0917A0233
:100AF00081E08E0F80937A028091BB00F0E0E65A8D
:100B0000FD4F8083BDCF85EC8093BC001092C9025D
:100B100080917A02803230F4E0917A02F0E0E65A75
:100B2000FD4F108260917A0270E0E0917B02F091BB
:100B30007C028AE592E0099510927A0236C084E040
:100B40008093C9021092590210925802E0917D02DE
:100B5000F0917E02099580915802811105C081E0D3
:100B60008093580210923802E091590281E08E0F72
:100B700080935902F0E0E85CFD4F80818093BB00D8
:100B80009091590280915802981708F479CF85E81E
:100B90008093BC000AC085EC8093BC001092C9020F
:100BA00004C01092C7020E942902FF91EF91BF91E9
:100BB000AF919F918F917F916F915F914F913F91F5
:100BC0002F910F900FBE0F901F901895009769F00E
:100BD000FC0101900020E9F73197AF01481B590B48
:100BE000BC018CEE92E00C94AD0080E090E00895A2
:100BF0008F929F92AF92BF920F931F93CF93DF93E9
:100C0000CDB7DEB7A1970FB6F894DEBF0FBECDBF4C
:100C100019A2423008F44AE08E010F5D1F4F842E66
:100C2000912CA12CB12CA50194010E94C50AE62F9C
:100C3000B901CA0101501109EA3014F4E05D01C0A4
:100C4000E95CD801EC93232B242B252B61F7C801F9
:100C50000E94E605A1960FB6F894DEBF0FBECDBF89
:100C6000DF91CF911F910F91BF90AF909F908F9088
:100C70000895682F70E080E090E04AE00C94F80559
:100C8000682F8CEE92E00C944001CF93DF930E948A
:100C9000E605EC018FEA91E00E94E6058C0F9D1FAE
:100CA000DF91CF9108959091C9029111FCCF982FB7
:100CB000813208F090E281E08093C9028093C802FB
:100CC0002FEF2093C7021092C602290F2093C5026E
:100CD0008093C4028091C402806D8093C40280918D
:100CE000C302813061F41092C3028091C4028093E8
:100CF000BB008091BC0083FDF8CF85EC01C085EE80
:100D00008093BC008091C9028130E1F38091C602DA
:100D1000891710F49091C602E3EAF2E0ACECB2E07D
:100D200080E0891721F021912D938F5FFACF1092E7
:100D3000CB028093CA0208953091A202313208F0AA
:100D40004BC08091C9028111FCCF9091A10222E099
:100D50002093C90221E02093C8022FEF2093C702FD
:100D60001092C6023093C502E1E8F2E0A3EAB2E0D5
:100D700020E0321721F041914D932F5FFACF10926E
:100D8000C4022091C402990F922B9093C4029091B7
:100D9000C302913061F41092C3029091C402909307
:100DA000BB009091BC0093FDF8CF95EC01C095EE8F
:100DB0009093BC009091C9029230E1F39091C702E8
:100DC0009F3F79F08091C702803241F08091C70245
:100DD000803331F084E005C081E003C082E001C0CF
:100DE00083E0109280021092A20210927F02089576
:100DF00090E0FC01E551FF4F2491FC01E952FF4FC7
:100E00003491FC01ED53FF4FE491EE2309F43CC013
:100E1000222339F1233091F038F42130A9F0223027
:100E200001F584B58F7D12C0273091F02830A1F0F4
:100E30002430B9F4809180008F7D03C080918000C0
:100E40008F77809380000DC084B58F7784BD09C0F3
:100E50008091B0008F7703C08091B0008F7D809328
:100E6000B000F0E0EE0FFF1FE754FF4FA591B491E3
:100E70009FB7F894611104C08C913095382302C05B
:100E8000EC913E2B3C939FBF0895CF93DF9390E06E
:100E9000FC01E952FF4F2491FC01ED53FF4F849177
:100EA000882361F190E0880F991FFC01E155FF4F05
:100EB000C591D491FC01E754FF4FA591B491611104
:100EC00009C09FB7F8948881209582238883EC918C
:100ED0002E230BC0623061F49FB7F8948881322FC3
:100EE000309583238883EC912E2B2C939FBF06C0D3
:100EF0008FB7F894E8812E2B28838FBFDF91CF9195
:100F000008951F920F920FB60F9211242F933F93C3
:100F10008F939F93AF93BF938091A6039091A70364
:100F2000A091A803B091A9033091A50323E0230F5A
:100F30002D3720F40196A11DB11D05C026E8230F11
:100F40000296A11DB11D2093A5038093A603909343
:100F5000A703A093A803B093A9038091A103909144
:100F6000A203A091A303B091A4030196A11DB11DFA
:100F70008093A1039093A203A093A303B093A4032F
:100F8000BF91AF919F918F913F912F910F900FBE85
:100F90000F901F901895FC01908190539A3008F0A3
:100FA00090E0818180532AE0929F800D1124089562
:100FB000CF93DF93CDB7DEB761970FB6F894DEBF5E
:100FC0000FBECDBF789484B5826084BD84B5816046
:100FD00084BD85B5826085BD85B5816085BD809104
:100FE0006E00816080936E0010928100809181007C
:100FF0008260809381008091810081608093810074
:10100000809180008160809380008091B100846035
:101010008093B1008091B00081608093B000809196
:101020007A00846080937A0080917A008260809355
:101030007A0080917A00816080937A0080917A00B2
:10104000806880937A001092C10061E080E00E9485
:10105000450760E081E00E94450761E082E00E9470
:101060004507E091FC02F091FD0282E08083E0916F
:10107000FC02F091FD021082E091F802F091F90279
:101080001082E091FA02F091FB0280E180831092DD
:101090000403E0910003F091010386E08083E09176
:1010A000FE02F091FF02808180618083E091FE0268
:1010B000F091FF02808188608083E091FE02F091D0
:1010C000FF02808180688083E091FE02F091FF0240
:1010D00080818F7D80831092CB021092CA02109281
:1010E00080021092A2021092C90201E00093C8028D
:1010F0001092C30261E082E10E94F80661E083E1A0
:101100000E94F8068091B9008E7F8093B90080918B
:10111000B9008D7F8093B90088E48093B80085E49E
:101120008093BC008BEA90E090937E0280937D02D6
:101130008CEA90E090937C0280937B0200937F0284
:1011400088E68093A102109280021092A20262E0CF
:1011500089E893E00E94B4020E949C0681E090E03E
:101160000E94530689E893E00E946B02807E9927D3
:10117000803E910509F0E0C08BE991E00E944506B0
:101180004BE050E063EA70E0CE0101960E949C0AB9
:10119000CE010A960E94CB07082FE9814E2FEE0F51
:1011A000550B660B770BFA01E154F109E331F105B8
:1011B00038F5EC5CFF4F0C94E70A12E021C08A81FD
:1011C000813639F08B818E3611F017E019C016E0A8
:1011D00017C011E015C08B81823711F018E010C0E4
:1011E00014E00EC08B81823711F015E009C013E0C6
:1011F00007C019E005C01AE003C01BE001C01CE0F5
:10120000CE0105960E94CB07C82E48E050E06AE95F
:1012100070E0CE0101960E949C0ACE0101960E94C8
:10122000CB07B82ECE0104960E94CB07A82ECE0184
:1012300007960E94CB07982EDD24D394D0927F028C
:1012400088E6E82EE092A102109280021092A2029B
:1012500063E089E893E00E94B4029AE0F92E892DB8
:101260006F2D0E94A50A682F660F860F880F682FC2
:10127000690D89E893E00E94B4028A2D6F2D0E94C7
:10128000A50A682F660F860F880F682F6A0D89E8F8
:1012900093E00E94B4028B2D6F2D0E94A50A682F47
:1012A000660F860F880F682F6B0D89E893E00E9408
:1012B000B4028C2D6F2D0E94A50A682F660F860F31
:1012C000880F682F6C0D89E893E00E94B40260E0FB
:1012D00089E893E00E94B402812F6F2D0E94A50A35
:1012E000682F660F680F660F610F89E893E00E9410
:1012F000B402802F6F2D0E94A50A682F660F680F19
:10130000660F600F89E893E00E94B4020E949C0679
:10131000D0927F02E092A102109280021092A2026B
:1013200062E089E893E00E94B40260E089E893E01B
:101330000E94B4020E949C06CE0101960E944204C3
:1013400086E0FE013196ABE9B3E001900D928A95FB
:10135000E1F78BE993E00E94EB01AB01BC01415F37
:101360005F4F6F4F7F4FCE0101960E94CA0386E008
:10137000FE013196A5E9B3E001900D928A95E1F75F
:10138000CE010C960E94E7028C8590E08053984F26
:1013900020919B0330E02053384F8217930761F56B
:1013A0003D8520919C03321327C03E8520919D03EB
:1013B000321322C03F8520919E0332131DC038890D
:1013C00020919F03321318C039892091A003321352
:1013D00013C08FEA91E00E94E60582EB91E00E9443
:1013E000450661E082E00E94F80689EC91E00E94E7
:1013F00045060E94AF01C4CF2091950330E02053F1
:10140000384F82179307A9F79D858091960398130B
:10141000F0CF9E85809197039813EBCF9F858091A5
:1014200098039813E6CF9889809199039813E1CF98
:10143000998980919A039813DCCF60E082E00E9442
:10144000F8068CED91E00E94450684EF91E00E9441
:101450004506CE0101960E94420486E0FE013196C7
:10146000ABE9B3E001900D928A95E1F78FEA91E044
:101470000E94E60585E192E00E9445068BE993E033
:101480000E94EB01AB01BC01415F5F4F6F4F7F4F8B
:10149000CE0101960E94CA0386E0FE013196A5E9BD
:1014A000B3E001900D928A95E1F7A3CFECEEF2E064
:1014B0001382128288EE93E0A0E0B0E084839583EB
:1014C000A683B78328E531E03183208325EC30E023
:1014D0003587248724EC30E03787268720EC30E0FE
:1014E000318B208B21EC30E0338B228B22EC30E0EF
:1014F000358B248B26EC30E0378B268B118E128EA9
:10150000138E148EE9E8F3E01382128284839583AC
:10151000A683B7838AE691E09183808340E050E020
:10152000BA018BE993E00E94CA0340E050E0BA019F
:1015300085E993E00C94CA03FB01DC0102C005902D
:101540000D9241505040D8F70895991B79E004C09E
:10155000991F961708F0961B881F7A95C9F78095F2
:101560000895AA1BBB1B51E107C0AA1FBB1FA617EA
:10157000B70710F0A61BB70B881F991F5A95A9F73C
:1015800080959095BC01CD010895A1E21A2EAA1B69
:10159000BB1BFD010DC0AA1FBB1FEE1FFF1FA21723
:1015A000B307E407F50720F0A21BB30BE40BF50B20
:1015B000661F771F881F991F1A9469F760957095A9
:1015C000809590959B01AC01BD01CF010895EE0F70
:1015D000FF1F0590F491E02D0994A29FB001B39FE5
:1015E000C001A39F700D811D1124911DB29F700D2C
:1015F000811D1124911D08950E94ED0AA59F900D53
:10160000B49F900DA49F800D911D1124089581E039
:0C16100090E0F8940C940C0BF894FFCFC1
:10161C0053756E6461790000000000004D6F6E64BC
:10162C0061790000000000005475657364617900F5
:10163C00000000005765646E6573646179000000FA
:10164C0054687572736461790000000046726964B5
:10165C006179000000000000536174757264617957
:10166C0000000000000000004001AD00D7008D011B
:10167C000801E600FA0000000000B4028702E40250
:10168C005B027F026B025C024D6573736167653AA6
:10169C00204675747572652074696D65206772617A
:1016AC00626265640020280029200052544320699E
:1016BC0073204E4F542072756E6E696E6721000D4B
:1016CC000A004D6573736167653A205761746572E2
:1016DC002070756D70206F6E00737475636B20686D
:1016EC0065726520696E206C6F6F70004D65737349
:1016FC006167653A2057617465722070756D702052
:10170C006F6666004D6573736167653A2053657447
:10171C0074696E67206E65772066757475726520C6
:10172C0074696D65004D6573736167653A20536527
:10173C0074696E67206E65772073746F707761744F
:08174C0065722074696D6500EF
:00000001FF
